{
  "contractName": "MyContract",
  "abi": [
    {
      "anonymous": false,
      "inputs": [
        {
          "indexed": false,
          "internalType": "uint8",
          "name": "version",
          "type": "uint8"
        }
      ],
      "name": "Initialized",
      "type": "event"
    },
    {
      "inputs": [],
      "name": "x",
      "outputs": [
        {
          "internalType": "uint256",
          "name": "",
          "type": "uint256"
        }
      ],
      "stateMutability": "view",
      "type": "function",
      "constant": true
    },
    {
      "inputs": [
        {
          "internalType": "uint256",
          "name": "_x",
          "type": "uint256"
        }
      ],
      "name": "initialize",
      "outputs": [],
      "stateMutability": "nonpayable",
      "type": "function"
    }
  ],
  "bytecode": "0x608060405234801561001057600080fd5b506103b4806100206000396000f3fe608060405234801561001057600080fd5b50600436106100365760003560e01c80630c55699c1461003b578063fe4b84df14610059575b600080fd5b610043610075565b60405161005091906101f5565b60405180910390f35b610073600480360381019061006e9190610241565b61007b565b005b60015481565b60008060019054906101000a900460ff161590508080156100ac5750600160008054906101000a900460ff1660ff16105b806100d957506100bb306101b9565b1580156100d85750600160008054906101000a900460ff1660ff16145b5b610118576040517f08c379a000000000000000000000000000000000000000000000000000000000815260040161010f906102f1565b60405180910390fd5b60016000806101000a81548160ff021916908360ff1602179055508015610155576001600060016101000a81548160ff0219169083151502179055505b8160018190555080156101b55760008060016101000a81548160ff0219169083151502179055507f7f26b83ff96e1f2b6a682f133852f6798a09c465da95921460cefb384740249860016040516101ac9190610363565b60405180910390a15b5050565b6000808273ffffffffffffffffffffffffffffffffffffffff163b119050919050565b6000819050919050565b6101ef816101dc565b82525050565b600060208201905061020a60008301846101e6565b92915050565b600080fd5b61021e816101dc565b811461022957600080fd5b50565b60008135905061023b81610215565b92915050565b60006020828403121561025757610256610210565b5b60006102658482850161022c565b91505092915050565b600082825260208201905092915050565b7f496e697469616c697a61626c653a20636f6e747261637420697320616c72656160008201527f647920696e697469616c697a6564000000000000000000000000000000000000602082015250565b60006102db602e8361026e565b91506102e68261027f565b604082019050919050565b6000602082019050818103600083015261030a816102ce565b9050919050565b6000819050919050565b600060ff82169050919050565b6000819050919050565b600061034d61034861034384610311565b610328565b61031b565b9050919050565b61035d81610332565b82525050565b60006020820190506103786000830184610354565b9291505056fea264697066735822122031d3f7c6b051ba7eb2066d87fdba174d7495732a358be5c4f34c45abc46b0bb664736f6c63430008110033",
  "immutableReferences": {},
  "source": "// SPDX-License-Identifier: MIT\r\npragma solidity ^0.8.17;\r\n\r\nimport \"@openzeppelin/contracts-upgradeable/proxy/utils/Initializable.sol\";\r\n\r\ncontract MyContract is Initializable {\r\n    uint256 public x;\r\n\r\n    function initialize(uint256 _x) public initializer {\r\n        x = _x;\r\n    }\r\n}",
  "sourcePath": "C:\\Users\\Sudeep\\Desktop\\upgradeable\\contracts\\MyContract.sol",
  "compiler": {
    "name": "solc",
    "version": "0.8.17+commit.8df45f5f.Emscripten.clang"
  },
  "schemaVersion": "3.4.10",
  "updatedAt": "2022-10-18T11:58:38.957Z",
  "networkType": "ethereum",
  "devdoc": {
    "kind": "dev",
    "methods": {},
    "version": 1
  },
  "userdoc": {
    "kind": "user",
    "methods": {},
    "version": 1
  }
}